{
  "contractName": "ConstantWithLoan",
  "abi": [
    {
      "constant": true,
      "inputs": [],
      "name": "name",
      "outputs": [
        {
          "name": "",
          "type": "string"
        }
      ],
      "payable": false,
      "stateMutability": "view",
      "type": "function"
    },
    {
      "constant": false,
      "inputs": [
        {
          "name": "spender",
          "type": "address"
        },
        {
          "name": "value",
          "type": "uint256"
        }
      ],
      "name": "approve",
      "outputs": [
        {
          "name": "",
          "type": "bool"
        }
      ],
      "payable": false,
      "stateMutability": "nonpayable",
      "type": "function"
    },
    {
      "constant": true,
      "inputs": [],
      "name": "totalSupply",
      "outputs": [
        {
          "name": "",
          "type": "uint256"
        }
      ],
      "payable": false,
      "stateMutability": "view",
      "type": "function"
    },
    {
      "constant": false,
      "inputs": [
        {
          "name": "from",
          "type": "address"
        },
        {
          "name": "to",
          "type": "address"
        },
        {
          "name": "value",
          "type": "uint256"
        }
      ],
      "name": "transferFrom",
      "outputs": [
        {
          "name": "",
          "type": "bool"
        }
      ],
      "payable": false,
      "stateMutability": "nonpayable",
      "type": "function"
    },
    {
      "constant": true,
      "inputs": [],
      "name": "decimals",
      "outputs": [
        {
          "name": "",
          "type": "uint256"
        }
      ],
      "payable": false,
      "stateMutability": "view",
      "type": "function"
    },
    {
      "constant": false,
      "inputs": [
        {
          "name": "seller",
          "type": "address"
        },
        {
          "name": "value",
          "type": "uint256"
        },
        {
          "name": "offchain",
          "type": "bytes32"
        }
      ],
      "name": "sell",
      "outputs": [],
      "payable": false,
      "stateMutability": "nonpayable",
      "type": "function"
    },
    {
      "constant": false,
      "inputs": [
        {
          "name": "spender",
          "type": "address"
        },
        {
          "name": "addedValue",
          "type": "uint256"
        }
      ],
      "name": "increaseAllowance",
      "outputs": [
        {
          "name": "",
          "type": "bool"
        }
      ],
      "payable": false,
      "stateMutability": "nonpayable",
      "type": "function"
    },
    {
      "constant": true,
      "inputs": [
        {
          "name": "owner",
          "type": "address"
        }
      ],
      "name": "balanceOf",
      "outputs": [
        {
          "name": "",
          "type": "uint256"
        }
      ],
      "payable": false,
      "stateMutability": "view",
      "type": "function"
    },
    {
      "constant": true,
      "inputs": [],
      "name": "symbol",
      "outputs": [
        {
          "name": "",
          "type": "string"
        }
      ],
      "payable": false,
      "stateMutability": "view",
      "type": "function"
    },
    {
      "constant": false,
      "inputs": [
        {
          "name": "redeemer",
          "type": "address"
        },
        {
          "name": "value",
          "type": "uint256"
        },
        {
          "name": "offchain",
          "type": "bytes32"
        }
      ],
      "name": "redeem",
      "outputs": [],
      "payable": false,
      "stateMutability": "nonpayable",
      "type": "function"
    },
    {
      "constant": false,
      "inputs": [
        {
          "name": "purchaser",
          "type": "address"
        },
        {
          "name": "value",
          "type": "uint256"
        },
        {
          "name": "offchain",
          "type": "bytes32"
        }
      ],
      "name": "purchase",
      "outputs": [],
      "payable": false,
      "stateMutability": "nonpayable",
      "type": "function"
    },
    {
      "constant": false,
      "inputs": [
        {
          "name": "spender",
          "type": "address"
        },
        {
          "name": "subtractedValue",
          "type": "uint256"
        }
      ],
      "name": "decreaseAllowance",
      "outputs": [
        {
          "name": "",
          "type": "bool"
        }
      ],
      "payable": false,
      "stateMutability": "nonpayable",
      "type": "function"
    },
    {
      "constant": false,
      "inputs": [
        {
          "name": "to",
          "type": "address"
        },
        {
          "name": "value",
          "type": "uint256"
        }
      ],
      "name": "transfer",
      "outputs": [
        {
          "name": "",
          "type": "bool"
        }
      ],
      "payable": false,
      "stateMutability": "nonpayable",
      "type": "function"
    },
    {
      "constant": true,
      "inputs": [
        {
          "name": "seller",
          "type": "address"
        }
      ],
      "name": "getOpenStake",
      "outputs": [
        {
          "name": "",
          "type": "uint256"
        }
      ],
      "payable": false,
      "stateMutability": "view",
      "type": "function"
    },
    {
      "constant": true,
      "inputs": [
        {
          "name": "owner",
          "type": "address"
        },
        {
          "name": "spender",
          "type": "address"
        }
      ],
      "name": "allowance",
      "outputs": [
        {
          "name": "",
          "type": "uint256"
        }
      ],
      "payable": false,
      "stateMutability": "view",
      "type": "function"
    },
    {
      "constant": false,
      "inputs": [
        {
          "name": "buyer",
          "type": "address"
        },
        {
          "name": "seller",
          "type": "address"
        },
        {
          "name": "value",
          "type": "uint256"
        },
        {
          "name": "offchain",
          "type": "bytes32"
        }
      ],
      "name": "withdraw",
      "outputs": [],
      "payable": false,
      "stateMutability": "nonpayable",
      "type": "function"
    },
    {
      "constant": false,
      "inputs": [
        {
          "name": "from",
          "type": "address"
        },
        {
          "name": "to",
          "type": "address"
        },
        {
          "name": "value",
          "type": "uint256"
        },
        {
          "name": "offchain",
          "type": "bytes32"
        }
      ],
      "name": "transferByAdmin",
      "outputs": [],
      "payable": false,
      "stateMutability": "nonpayable",
      "type": "function"
    },
    {
      "inputs": [],
      "payable": false,
      "stateMutability": "nonpayable",
      "type": "constructor"
    },
    {
      "anonymous": false,
      "inputs": [
        {
          "indexed": false,
          "name": "lid",
          "type": "uint256"
        },
        {
          "indexed": false,
          "name": "offchain",
          "type": "bytes32"
        }
      ],
      "name": "__borrow",
      "type": "event"
    },
    {
      "anonymous": false,
      "inputs": [
        {
          "indexed": false,
          "name": "offchain",
          "type": "bytes32"
        }
      ],
      "name": "__payoff",
      "type": "event"
    },
    {
      "anonymous": false,
      "inputs": [
        {
          "indexed": false,
          "name": "offchain",
          "type": "bytes32"
        }
      ],
      "name": "__liquidate",
      "type": "event"
    },
    {
      "anonymous": false,
      "inputs": [
        {
          "indexed": false,
          "name": "offchain",
          "type": "bytes32"
        }
      ],
      "name": "__setParam",
      "type": "event"
    },
    {
      "anonymous": false,
      "inputs": [
        {
          "indexed": false,
          "name": "offchain",
          "type": "bytes32"
        }
      ],
      "name": "__setData",
      "type": "event"
    },
    {
      "anonymous": false,
      "inputs": [
        {
          "indexed": false,
          "name": "offchain",
          "type": "bytes32"
        }
      ],
      "name": "__transferByAdmin",
      "type": "event"
    },
    {
      "anonymous": false,
      "inputs": [
        {
          "indexed": false,
          "name": "offchain",
          "type": "bytes32"
        }
      ],
      "name": "__purchase",
      "type": "event"
    },
    {
      "anonymous": false,
      "inputs": [
        {
          "indexed": false,
          "name": "offchain",
          "type": "bytes32"
        }
      ],
      "name": "__redeem",
      "type": "event"
    },
    {
      "anonymous": false,
      "inputs": [
        {
          "indexed": false,
          "name": "offchain",
          "type": "bytes32"
        }
      ],
      "name": "__sell",
      "type": "event"
    },
    {
      "anonymous": false,
      "inputs": [
        {
          "indexed": false,
          "name": "offchain",
          "type": "bytes32"
        }
      ],
      "name": "__withdraw",
      "type": "event"
    },
    {
      "anonymous": false,
      "inputs": [
        {
          "indexed": true,
          "name": "from",
          "type": "address"
        },
        {
          "indexed": true,
          "name": "to",
          "type": "address"
        },
        {
          "indexed": false,
          "name": "value",
          "type": "uint256"
        }
      ],
      "name": "Transfer",
      "type": "event"
    },
    {
      "anonymous": false,
      "inputs": [
        {
          "indexed": true,
          "name": "owner",
          "type": "address"
        },
        {
          "indexed": true,
          "name": "spender",
          "type": "address"
        },
        {
          "indexed": false,
          "name": "value",
          "type": "uint256"
        }
      ],
      "name": "Approval",
      "type": "event"
    },
    {
      "constant": false,
      "inputs": [
        {
          "name": "_oracle",
          "type": "address"
        }
      ],
      "name": "updateOracle",
      "outputs": [],
      "payable": false,
      "stateMutability": "nonpayable",
      "type": "function"
    },
    {
      "constant": false,
      "inputs": [
        {
          "name": "offchain",
          "type": "bytes32"
        }
      ],
      "name": "borrow",
      "outputs": [],
      "payable": true,
      "stateMutability": "payable",
      "type": "function"
    },
    {
      "constant": false,
      "inputs": [
        {
          "name": "lid",
          "type": "uint256"
        },
        {
          "name": "offchain",
          "type": "bytes32"
        }
      ],
      "name": "payoff",
      "outputs": [],
      "payable": false,
      "stateMutability": "nonpayable",
      "type": "function"
    },
    {
      "constant": false,
      "inputs": [
        {
          "name": "lid",
          "type": "uint256"
        },
        {
          "name": "offchain",
          "type": "bytes32"
        }
      ],
      "name": "liquidate",
      "outputs": [],
      "payable": false,
      "stateMutability": "nonpayable",
      "type": "function"
    },
    {
      "constant": false,
      "inputs": [
        {
          "name": "key",
          "type": "bytes32"
        },
        {
          "name": "value",
          "type": "uint256"
        },
        {
          "name": "offchain",
          "type": "bytes32"
        }
      ],
      "name": "setParam",
      "outputs": [],
      "payable": false,
      "stateMutability": "nonpayable",
      "type": "function"
    },
    {
      "constant": true,
      "inputs": [
        {
          "name": "key",
          "type": "bytes32"
        }
      ],
      "name": "getParam",
      "outputs": [
        {
          "name": "",
          "type": "uint256"
        }
      ],
      "payable": false,
      "stateMutability": "view",
      "type": "function"
    },
    {
      "constant": false,
      "inputs": [
        {
          "name": "key",
          "type": "bytes32"
        },
        {
          "name": "value",
          "type": "uint256"
        },
        {
          "name": "offchain",
          "type": "bytes32"
        }
      ],
      "name": "setData",
      "outputs": [],
      "payable": false,
      "stateMutability": "nonpayable",
      "type": "function"
    },
    {
      "constant": true,
      "inputs": [
        {
          "name": "key",
          "type": "bytes32"
        }
      ],
      "name": "getData",
      "outputs": [
        {
          "name": "",
          "type": "uint256"
        }
      ],
      "payable": false,
      "stateMutability": "view",
      "type": "function"
    }
  ],
  "bytecode": "0x608060405234801561001057600080fd5b5033600360006101000a81548173ffffffffffffffffffffffffffffffffffffffff021916908373ffffffffffffffffffffffffffffffffffffffff16021790555033600660006101000a81548173ffffffffffffffffffffffffffffffffffffffff021916908373ffffffffffffffffffffffffffffffffffffffff16021790555061266e806100a26000396000f300608060405260043610610149576000357c0100000000000000000000000000000000000000000000000000000000900463ffffffff16806306fdde031461014e578063095ea7b3146101de57806318160ddd146102435780631cb44dfc1461026e57806323b872dd146102b1578063313ce5671461033657806332935aa91461036157806339509351146103bc5780633f4560491461042157806340f5ee4e1461046a5780634c555282146104b357806354f6127f146104ee57806370a082311461053357806395d89b411461058a578063992c3e4b1461061a578063a3749f2814610675578063a457c2d7146106d0578063a9059cbb14610735578063d5eed8681461079a578063da36d063146107be578063dd62ed3e14610815578063e137f31b1461088c578063efc1a9bf146108c7578063f4b23e031461090c578063f9ba884f14610987575b600080fd5b34801561015a57600080fd5b50610163610a02565b6040518080602001828103825283818151815260200191508051906020019080838360005b838110156101a3578082015181840152602081019050610188565b50505050905090810190601f1680156101d05780820380516001836020036101000a031916815260200191505b509250505060405180910390f35b3480156101ea57600080fd5b50610229600480360381019080803573ffffffffffffffffffffffffffffffffffffffff16906020019092919080359060200190929190505050610a3b565b604051808215151515815260200191505060405180910390f35b34801561024f57600080fd5b50610258610b68565b6040518082815260200191505060405180910390f35b34801561027a57600080fd5b506102af600480360381019080803573ffffffffffffffffffffffffffffffffffffffff169060200190929190505050610b72565b005b3480156102bd57600080fd5b5061031c600480360381019080803573ffffffffffffffffffffffffffffffffffffffff169060200190929190803573ffffffffffffffffffffffffffffffffffffffff16906020019092919080359060200190929190505050610c12565b604051808215151515815260200191505060405180910390f35b34801561034257600080fd5b5061034b610dc4565b6040518082815260200191505060405180910390f35b34801561036d57600080fd5b506103ba600480360381019080803573ffffffffffffffffffffffffffffffffffffffff169060200190929190803590602001909291908035600019169060200190929190505050610dc9565b005b3480156103c857600080fd5b50610407600480360381019080803573ffffffffffffffffffffffffffffffffffffffff16906020019092919080359060200190929190505050610eb8565b604051808215151515815260200191505060405180910390f35b34801561042d57600080fd5b5061046860048036038101908080356000191690602001909291908035906020019092919080356000191690602001909291905050506110ef565b005b34801561047657600080fd5b506104b160048036038101908080356000191690602001909291908035906020019092919080356000191690602001909291905050506111af565b005b3480156104bf57600080fd5b506104ec60048036038101908080359060200190929190803560001916906020019092919050505061126f565b005b3480156104fa57600080fd5b5061051d6004803603810190808035600019169060200190929190505050611451565b6040518082815260200191505060405180910390f35b34801561053f57600080fd5b50610574600480360381019080803573ffffffffffffffffffffffffffffffffffffffff169060200190929190505050611476565b6040518082815260200191505060405180910390f35b34801561059657600080fd5b5061059f6114be565b6040518080602001828103825283818151815260200191508051906020019080838360005b838110156105df5780820151818401526020810190506105c4565b50505050905090810190601f16801561060c5780820380516001836020036101000a031916815260200191505b509250505060405180910390f35b34801561062657600080fd5b50610673600480360381019080803573ffffffffffffffffffffffffffffffffffffffff1690602001909291908035906020019092919080356000191690602001909291905050506114f7565b005b34801561068157600080fd5b506106ce600480360381019080803573ffffffffffffffffffffffffffffffffffffffff1690602001909291908035906020019092919080356000191690602001909291905050506115a1565b005b3480156106dc57600080fd5b5061071b600480360381019080803573ffffffffffffffffffffffffffffffffffffffff1690602001909291908035906020019092919050505061164b565b604051808215151515815260200191505060405180910390f35b34801561074157600080fd5b50610780600480360381019080803573ffffffffffffffffffffffffffffffffffffffff16906020019092919080359060200190929190505050611882565b604051808215151515815260200191505060405180910390f35b6107bc6004803603810190808035600019169060200190929190505050611899565b005b3480156107ca57600080fd5b506107ff600480360381019080803573ffffffffffffffffffffffffffffffffffffffff169060200190929190505050611baa565b6040518082815260200191505060405180910390f35b34801561082157600080fd5b50610876600480360381019080803573ffffffffffffffffffffffffffffffffffffffff169060200190929190803573ffffffffffffffffffffffffffffffffffffffff169060200190929190505050611c4f565b6040518082815260200191505060405180910390f35b34801561089857600080fd5b506108c5600480360381019080803590602001909291908035600019169060200190929190505050611cd6565b005b3480156108d357600080fd5b506108f66004803603810190808035600019169060200190929190505050611e71565b6040518082815260200191505060405180910390f35b34801561091857600080fd5b50610985600480360381019080803573ffffffffffffffffffffffffffffffffffffffff169060200190929190803573ffffffffffffffffffffffffffffffffffffffff169060200190929190803590602001909291908035600019169060200190929190505050611e96565b005b34801561099357600080fd5b50610a00600480360381019080803573ffffffffffffffffffffffffffffffffffffffff169060200190929190803573ffffffffffffffffffffffffffffffffffffffff169060200190929190803590602001909291908035600019169060200190929190505050611ff1565b005b6040805190810160405280600881526020017f436f6e7374616e7400000000000000000000000000000000000000000000000081525081565b60008073ffffffffffffffffffffffffffffffffffffffff168373ffffffffffffffffffffffffffffffffffffffff1614151515610a7857600080fd5b81600160003373ffffffffffffffffffffffffffffffffffffffff1673ffffffffffffffffffffffffffffffffffffffff16815260200190815260200160002060008573ffffffffffffffffffffffffffffffffffffffff1673ffffffffffffffffffffffffffffffffffffffff168152602001908152602001600020819055508273ffffffffffffffffffffffffffffffffffffffff163373ffffffffffffffffffffffffffffffffffffffff167f8c5be1e5ebec7d5bd14f71427d1e84f3dd0314c0f7b2291e5b200ac8c7c3b925846040518082815260200191505060405180910390a36001905092915050565b6000600254905090565b600360009054906101000a900473ffffffffffffffffffffffffffffffffffffffff1673ffffffffffffffffffffffffffffffffffffffff163373ffffffffffffffffffffffffffffffffffffffff16141515610bce57600080fd5b80600660006101000a81548173ffffffffffffffffffffffffffffffffffffffff021916908373ffffffffffffffffffffffffffffffffffffffff16021790555050565b6000600160008573ffffffffffffffffffffffffffffffffffffffff1673ffffffffffffffffffffffffffffffffffffffff16815260200190815260200160002060003373ffffffffffffffffffffffffffffffffffffffff1673ffffffffffffffffffffffffffffffffffffffff168152602001908152602001600020548211151515610c9f57600080fd5b610d2e82600160008773ffffffffffffffffffffffffffffffffffffffff1673ffffffffffffffffffffffffffffffffffffffff16815260200190815260200160002060003373ffffffffffffffffffffffffffffffffffffffff1673ffffffffffffffffffffffffffffffffffffffff1681526020019081526020016000205461209d90919063ffffffff16565b600160008673ffffffffffffffffffffffffffffffffffffffff1673ffffffffffffffffffffffffffffffffffffffff16815260200190815260200160002060003373ffffffffffffffffffffffffffffffffffffffff1673ffffffffffffffffffffffffffffffffffffffff16815260200190815260200160002081905550610db98484846120be565b600190509392505050565b600281565b600360009054906101000a900473ffffffffffffffffffffffffffffffffffffffff1673ffffffffffffffffffffffffffffffffffffffff163373ffffffffffffffffffffffffffffffffffffffff16141515610e2557600080fd5b610e308330846120be565b81600460008573ffffffffffffffffffffffffffffffffffffffff1673ffffffffffffffffffffffffffffffffffffffff168152602001908152602001600020819055507fcb759af4eec083ae6798931712055f347d0bd523b7ebb224e5a1cf618b3f95ac8160405180826000191660001916815260200191505060405180910390a1505050565b60008073ffffffffffffffffffffffffffffffffffffffff168373ffffffffffffffffffffffffffffffffffffffff1614151515610ef557600080fd5b610f8482600160003373ffffffffffffffffffffffffffffffffffffffff1673ffffffffffffffffffffffffffffffffffffffff16815260200190815260200160002060008673ffffffffffffffffffffffffffffffffffffffff1673ffffffffffffffffffffffffffffffffffffffff168152602001908152602001600020546122d790919063ffffffff16565b600160003373ffffffffffffffffffffffffffffffffffffffff1673ffffffffffffffffffffffffffffffffffffffff16815260200190815260200160002060008573ffffffffffffffffffffffffffffffffffffffff1673ffffffffffffffffffffffffffffffffffffffff168152602001908152602001600020819055508273ffffffffffffffffffffffffffffffffffffffff163373ffffffffffffffffffffffffffffffffffffffff167f8c5be1e5ebec7d5bd14f71427d1e84f3dd0314c0f7b2291e5b200ac8c7c3b925600160003373ffffffffffffffffffffffffffffffffffffffff1673ffffffffffffffffffffffffffffffffffffffff16815260200190815260200160002060008773ffffffffffffffffffffffffffffffffffffffff1673ffffffffffffffffffffffffffffffffffffffff168152602001908152602001600020546040518082815260200191505060405180910390a36001905092915050565b600360009054906101000a900473ffffffffffffffffffffffffffffffffffffffff1673ffffffffffffffffffffffffffffffffffffffff163373ffffffffffffffffffffffffffffffffffffffff1614151561114b57600080fd5b81600760008560001916600019168152602001908152602001600020819055507fd8c93d5a42b0a27bfe94ef709b72f028096aeeba7636dc85e61ae1a4f894608f8160405180826000191660001916815260200191505060405180910390a1505050565b600660009054906101000a900473ffffffffffffffffffffffffffffffffffffffff1673ffffffffffffffffffffffffffffffffffffffff163373ffffffffffffffffffffffffffffffffffffffff1614151561120b57600080fd5b81600860008560001916600019168152602001908152602001600020819055507f99e36c69ea382affe131311d5638824c08c146c7293d4de4572674b42645fa318160405180826000191660001916815260200191505060405180910390a1505050565b6000600360009054906101000a900473ffffffffffffffffffffffffffffffffffffffff1673ffffffffffffffffffffffffffffffffffffffff163373ffffffffffffffffffffffffffffffffffffffff161415156112cd57600080fd5b6005838154811015156112dc57fe5b90600052602060002090600702019050600060028111156112f957fe5b8160060160149054906101000a900460ff16600281111561131657fe5b14151561132257600080fd5b8060030160020154816003016001015402600860007f65746850726963650000000000000000000000000000000000000000000000006000191681526020019081526020016000205410151561137757600080fd5b60028160060160146101000a81548160ff0219169083600281111561139857fe5b0217905550600360009054906101000a900473ffffffffffffffffffffffffffffffffffffffff1673ffffffffffffffffffffffffffffffffffffffff166108fc82600301600001549081150290604051600060405180830381858888f1935050505015801561140c573d6000803e3d6000fd5b507f19ab7221fec3242f7442ff80888f33c250afdf8d4cf62583cec2748acaad0ec48260405180826000191660001916815260200191505060405180910390a1505050565b6000600860008360001916600019168152602001908152602001600020549050919050565b60008060008373ffffffffffffffffffffffffffffffffffffffff1673ffffffffffffffffffffffffffffffffffffffff168152602001908152602001600020549050919050565b6040805190810160405280600581526020017f434f4e535400000000000000000000000000000000000000000000000000000081525081565b600360009054906101000a900473ffffffffffffffffffffffffffffffffffffffff1673ffffffffffffffffffffffffffffffffffffffff163373ffffffffffffffffffffffffffffffffffffffff1614151561155357600080fd5b61155d83836122f8565b7fb0de879351469d2741406aafc9ba1f44eb957cf44ee3391e59a7a9097050c9278160405180826000191660001916815260200191505060405180910390a1505050565b600360009054906101000a900473ffffffffffffffffffffffffffffffffffffffff1673ffffffffffffffffffffffffffffffffffffffff163373ffffffffffffffffffffffffffffffffffffffff161415156115fd57600080fd5b6116078383612483565b7fef72b9890ab0fc46404e72534dc1bbc275de9d7efd8b3657ad91f82e1a3d39c48160405180826000191660001916815260200191505060405180910390a1505050565b60008073ffffffffffffffffffffffffffffffffffffffff168373ffffffffffffffffffffffffffffffffffffffff161415151561168857600080fd5b61171782600160003373ffffffffffffffffffffffffffffffffffffffff1673ffffffffffffffffffffffffffffffffffffffff16815260200190815260200160002060008673ffffffffffffffffffffffffffffffffffffffff1673ffffffffffffffffffffffffffffffffffffffff1681526020019081526020016000205461209d90919063ffffffff16565b600160003373ffffffffffffffffffffffffffffffffffffffff1673ffffffffffffffffffffffffffffffffffffffff16815260200190815260200160002060008573ffffffffffffffffffffffffffffffffffffffff1673ffffffffffffffffffffffffffffffffffffffff168152602001908152602001600020819055508273ffffffffffffffffffffffffffffffffffffffff163373ffffffffffffffffffffffffffffffffffffffff167f8c5be1e5ebec7d5bd14f71427d1e84f3dd0314c0f7b2291e5b200ac8c7c3b925600160003373ffffffffffffffffffffffffffffffffffffffff1673ffffffffffffffffffffffffffffffffffffffff16815260200190815260200160002060008773ffffffffffffffffffffffffffffffffffffffff1673ffffffffffffffffffffffffffffffffffffffff168152602001908152602001600020546040518082815260200191505060405180910390a36001905092915050565b600061188f3384846120be565b6001905092915050565b6118a16125c1565b6064600760007f726174696f00000000000000000000000000000000000000000000000000000060001916815260200190815260200160002054600860007f65746850726963650000000000000000000000000000000000000000000000006000191681526020019081526020016000205434020281151561191f57fe5b04816000018181525050600760007f696e74657265737400000000000000000000000000000000000000000000000060001916815260200190815260200160002054816020018181525050606060405190810160405280348152602001600860007f6574685072696365000000000000000000000000000000000000000000000000600019168152602001908152602001600020548152602001600760007f7468726573686f6c6400000000000000000000000000000000000000000000006000191681526020019081526020016000205481525081606001819052504281604001818152505033816080019073ffffffffffffffffffffffffffffffffffffffff16908173ffffffffffffffffffffffffffffffffffffffff168152505060008160a001906002811115611a5057fe5b90816002811115611a5d57fe5b8152505060058190806001815401808255809150509060018203906000526020600020906007020160009091929091909150600082015181600001556020820151816001015560408201518160020155606082015181600301600082015181600001556020820151816001015560408201518160020155505060808201518160060160006101000a81548173ffffffffffffffffffffffffffffffffffffffff021916908373ffffffffffffffffffffffffffffffffffffffff16021790555060a08201518160060160146101000a81548160ff02191690836002811115611b4157fe5b0217905550505050611b57338260000151612483565b7f036872352a35530308027377cd0aef0e9489e4339550fb7fcc3ae38bc648a134600160058054905003836040518083815260200182600019166000191681526020019250505060405180910390a15050565b6000600360009054906101000a900473ffffffffffffffffffffffffffffffffffffffff1673ffffffffffffffffffffffffffffffffffffffff163373ffffffffffffffffffffffffffffffffffffffff16141515611c0857600080fd5b600460008373ffffffffffffffffffffffffffffffffffffffff1673ffffffffffffffffffffffffffffffffffffffff168152602001908152602001600020549050919050565b6000600160008473ffffffffffffffffffffffffffffffffffffffff1673ffffffffffffffffffffffffffffffffffffffff16815260200190815260200160002060008373ffffffffffffffffffffffffffffffffffffffff1673ffffffffffffffffffffffffffffffffffffffff16815260200190815260200160002054905092915050565b6000600583815481101515611ce757fe5b9060005260206000209060070201905060006002811115611d0457fe5b8160060160149054906101000a900460ff166002811115611d2157fe5b141515611d2d57600080fd5b8060060160009054906101000a900473ffffffffffffffffffffffffffffffffffffffff1673ffffffffffffffffffffffffffffffffffffffff163373ffffffffffffffffffffffffffffffffffffffff16141515611d8b57600080fd5b60018160060160146101000a81548160ff02191690836002811115611dac57fe5b0217905550611dd13330836002015442038460010154026001018460000154026120be565b611ddf3082600001546122f8565b3373ffffffffffffffffffffffffffffffffffffffff166108fc82600301600001549081150290604051600060405180830381858888f19350505050158015611e2c573d6000803e3d6000fd5b507fd68d5698fae2dc1d31bf2bf1ea674da9ebcc3989a5c8b6892414890a1de99a808260405180826000191660001916815260200191505060405180910390a1505050565b6000600760008360001916600019168152602001908152602001600020549050919050565b600360009054906101000a900473ffffffffffffffffffffffffffffffffffffffff1673ffffffffffffffffffffffffffffffffffffffff163373ffffffffffffffffffffffffffffffffffffffff16141515611ef257600080fd5b81600460008573ffffffffffffffffffffffffffffffffffffffff1673ffffffffffffffffffffffffffffffffffffffff1681526020019081526020016000205410158015611f49575081611f4630611476565b10155b1515611f5457600080fd5b611f5f3085846120be565b81600460008573ffffffffffffffffffffffffffffffffffffffff1673ffffffffffffffffffffffffffffffffffffffff168152602001908152602001600020600082825403925050819055507fb127f50b849dea01d0e4fa7936f0e1d3e7fa429f0e5aa7ac0ee3b77ae4ab6eaf8160405180826000191660001916815260200191505060405180910390a150505050565b600360009054906101000a900473ffffffffffffffffffffffffffffffffffffffff1673ffffffffffffffffffffffffffffffffffffffff163373ffffffffffffffffffffffffffffffffffffffff1614151561204d57600080fd5b6120588484846120be565b7f3b36ee6b35325f38e95938557be92853c842b7a9a19fd7ac4931a6d24db526828160405180826000191660001916815260200191505060405180910390a150505050565b6000808383111515156120af57600080fd5b82840390508091505092915050565b6000808473ffffffffffffffffffffffffffffffffffffffff1673ffffffffffffffffffffffffffffffffffffffff16815260200190815260200160002054811115151561210b57600080fd5b600073ffffffffffffffffffffffffffffffffffffffff168273ffffffffffffffffffffffffffffffffffffffff161415151561214757600080fd5b612198816000808673ffffffffffffffffffffffffffffffffffffffff1673ffffffffffffffffffffffffffffffffffffffff1681526020019081526020016000205461209d90919063ffffffff16565b6000808573ffffffffffffffffffffffffffffffffffffffff1673ffffffffffffffffffffffffffffffffffffffff1681526020019081526020016000208190555061222b816000808573ffffffffffffffffffffffffffffffffffffffff1673ffffffffffffffffffffffffffffffffffffffff168152602001908152602001600020546122d790919063ffffffff16565b6000808473ffffffffffffffffffffffffffffffffffffffff1673ffffffffffffffffffffffffffffffffffffffff168152602001908152602001600020819055508173ffffffffffffffffffffffffffffffffffffffff168373ffffffffffffffffffffffffffffffffffffffff167fddf252ad1be2c89b69c2b068fc378daa952ba7f163c4a11628f55a4df523b3ef836040518082815260200191505060405180910390a3505050565b60008082840190508381101515156122ee57600080fd5b8091505092915050565b60008273ffffffffffffffffffffffffffffffffffffffff161415151561231e57600080fd5b6000808373ffffffffffffffffffffffffffffffffffffffff1673ffffffffffffffffffffffffffffffffffffffff16815260200190815260200160002054811115151561236b57600080fd5b6123808160025461209d90919063ffffffff16565b6002819055506123d7816000808573ffffffffffffffffffffffffffffffffffffffff1673ffffffffffffffffffffffffffffffffffffffff1681526020019081526020016000205461209d90919063ffffffff16565b6000808473ffffffffffffffffffffffffffffffffffffffff1673ffffffffffffffffffffffffffffffffffffffff16815260200190815260200160002081905550600073ffffffffffffffffffffffffffffffffffffffff168273ffffffffffffffffffffffffffffffffffffffff167fddf252ad1be2c89b69c2b068fc378daa952ba7f163c4a11628f55a4df523b3ef836040518082815260200191505060405180910390a35050565b60008273ffffffffffffffffffffffffffffffffffffffff16141515156124a957600080fd5b6124be816002546122d790919063ffffffff16565b600281905550612515816000808573ffffffffffffffffffffffffffffffffffffffff1673ffffffffffffffffffffffffffffffffffffffff168152602001908152602001600020546122d790919063ffffffff16565b6000808473ffffffffffffffffffffffffffffffffffffffff1673ffffffffffffffffffffffffffffffffffffffff168152602001908152602001600020819055508173ffffffffffffffffffffffffffffffffffffffff16600073ffffffffffffffffffffffffffffffffffffffff167fddf252ad1be2c89b69c2b068fc378daa952ba7f163c4a11628f55a4df523b3ef836040518082815260200191505060405180910390a35050565b610100604051908101604052806000815260200160008152602001600081526020016125eb612620565b8152602001600073ffffffffffffffffffffffffffffffffffffffff1681526020016000600281111561261a57fe5b81525090565b60606040519081016040528060008152602001600081526020016000815250905600a165627a7a72305820d2a088ab33ddaf76fd826ee47a4ee1f4add2aa0404248544678229f6c1e901fb0029",
  "source": "pragma solidity ^0.4.24;\n\nimport 'openzeppelin-solidity/contracts/token/ERC20/ERC20.sol';\nimport './Constant.sol';\n\n\ncontract ConstantWithLoan is Constant { \n\n        enum LoanState {Open, Closed, Liquidated}\n\n        struct Collateral {\n                uint assetAmount;\n                uint assetPrice;\n                uint threshold; // for automatic liquidation\n        }\n\n        struct Loan {\n                uint principal;\n                uint interest;\n                uint since;\n                Collateral collateral;\n                address borrower;\n                LoanState state;\n        }\n\n        Loan[] private loan;\n        address private oracle;\n        mapping(bytes32 => uint) private param; // network parameters such as ratio, threshold, interest\n        mapping(bytes32 => uint) private data; // external data such as ethPrice\n\n        event __borrow(uint lid, bytes32 offchain);\n        event __payoff(bytes32 offchain);\n        event __liquidate(bytes32 offchain);\n        event __setParam(bytes32 offchain);\n        event __setData(bytes32 offchain);\n\n        constructor() public {\n                oracle = msg.sender;\n        }\n\n        modifier onlyOracle() {\n                require(msg.sender == oracle);\n                _;\n        }\n\n        function updateOracle(address _oracle) public onlyAdmin {\n                oracle = _oracle;\n        }\n\n        /**\n         * @dev Function to extend a secured loan\n         */\n        function borrow(bytes32 offchain) public payable {\n                Loan memory l;\n                l.principal = (msg.value * data[\"ethPrice\"] * param[\"ratio\"]) / 100;\n                l.interest = param[\"interest\"];\n                l.collateral = Collateral(msg.value, data[\"ethPrice\"], param[\"threshold\"]);\n                l.since = now;\n                l.borrower = msg.sender;\n                l.state = LoanState.Open;\n\n                loan.push(l);\n                _mint(msg.sender, l.principal);\n\n                emit __borrow(loan.length - 1, offchain); // catch this event\n        }\n\n        /**\n         * @dev Function to pay off a secured loan\n         * @param lid the loan id\n         */\n        function payoff(uint lid, bytes32 offchain) public {\n                Loan storage l = loan[lid];\n\n                require(l.state == LoanState.Open);\n                require(msg.sender == l.borrower);\n\n                l.state = LoanState.Closed;\n                _transfer(msg.sender, this, l.principal * (1 + l.interest * (now - l.since)));\n                _burn(this, l.principal);\n                msg.sender.transfer(l.collateral.assetAmount);\n\n                emit __payoff(offchain);\n        }\n\n        /**\n         * @dev Function to handle automatic liquidation when the value of the collateral is low\n         * @param lid the loan id\n         */\n        function liquidate(uint lid, bytes32 offchain) public onlyAdmin {\n                Loan storage l = loan[lid];\n\n                require(l.state == LoanState.Open);\n                require(data[\"ethPrice\"] < l.collateral.assetPrice * l.collateral.threshold);\n\n                l.state = LoanState.Liquidated;\n                admin.transfer(l.collateral.assetAmount);\n\n                emit __liquidate(offchain);\n        }\n\n        /**\n         * @dev Setter function to update a param value\n         */\n        function setParam(bytes32 key, uint value, bytes32 offchain) public onlyAdmin {\n                param[key] = value;\n                emit __setParam(offchain);\n        }\n        \n        /**\n         * @dev Getter function to get a param value\n         */\n        function getParam(bytes32 key) public view returns (uint){\n                return param[key];\n        }\n\n        /**\n         * @dev Setter function to update a data value\n         */\n        function setData(bytes32 key, uint value, bytes32 offchain) public onlyOracle {\n                data[key] = value;\n                emit __setData(offchain);\n        }\n        \n        /**\n         * @dev Getter function to get a data value\n         */\n        function getData(bytes32 key) public view returns (uint){\n                return data[key];\n        }\n}\n",
  "sourcePath": "/home/d/code/constant-mvp/smart-contract/contracts/ConstantWithLoan.sol",
  "compiler": {
    "name": "solc",
    "version": "0.4.24+commit.e67f0147.Emscripten.clang"
  },
  "schemaVersion": "2.0.1",
  "updatedAt": "2018-12-28T21:06:46.079Z"
}