{
  "contractName": "Governance",
  "abi": [
    {
      "anonymous": false,
      "inputs": [
        {
          "indexed": false,
          "name": "offchain",
          "type": "bytes32"
        }
      ],
      "name": "__setParam",
      "type": "event"
    },
    {
      "anonymous": false,
      "inputs": [
        {
          "indexed": false,
          "name": "offchain",
          "type": "bytes32"
        }
      ],
      "name": "__setData",
      "type": "event"
    },
    {
      "constant": false,
      "inputs": [
        {
          "name": "key",
          "type": "bytes32"
        },
        {
          "name": "value",
          "type": "uint256"
        },
        {
          "name": "offchain",
          "type": "bytes32"
        }
      ],
      "name": "setParam",
      "outputs": [],
      "payable": false,
      "stateMutability": "nonpayable",
      "type": "function"
    },
    {
      "constant": true,
      "inputs": [
        {
          "name": "key",
          "type": "bytes32"
        }
      ],
      "name": "getParam",
      "outputs": [
        {
          "name": "",
          "type": "uint256"
        }
      ],
      "payable": false,
      "stateMutability": "view",
      "type": "function"
    }
  ],
  "bytecode": "0x6080604052336000806101000a81548173ffffffffffffffffffffffffffffffffffffffff021916908373ffffffffffffffffffffffffffffffffffffffff1602179055506101ef806100536000396000f30060806040526004361061004c576000357c0100000000000000000000000000000000000000000000000000000000900463ffffffff1680633f45604914610051578063efc1a9bf1461009a575b600080fd5b34801561005d57600080fd5b5061009860048036038101908080356000191690602001909291908035906020019092919080356000191690602001909291905050506100df565b005b3480156100a657600080fd5b506100c9600480360381019080803560001916906020019092919050505061019e565b6040518082815260200191505060405180910390f35b6000809054906101000a900473ffffffffffffffffffffffffffffffffffffffff1673ffffffffffffffffffffffffffffffffffffffff163373ffffffffffffffffffffffffffffffffffffffff1614151561013a57600080fd5b81600160008560001916600019168152602001908152602001600020819055507fd8c93d5a42b0a27bfe94ef709b72f028096aeeba7636dc85e61ae1a4f894608f8160405180826000191660001916815260200191505060405180910390a1505050565b60006001600083600019166000191681526020019081526020016000205490509190505600a165627a7a72305820f67818f4afc5723d86365887bd127dcf74f57799cf4360ec924060136de73b490029",
  "source": "pragma solidity ^0.4.24;\n\nimport './Admin.sol';\n\ncontract Governance is Admin { \n\n        // network parameters such as ratio, threshold, interest\n        mapping(bytes32 => uint) internal param;        \n\n        event __setParam(bytes32 offchain);\n        event __setData(bytes32 offchain);\n\n\n        /**\n         * @dev Setter function to update a param value\n         */\n        function setParam(\n                bytes32 key, \n                uint value, \n                bytes32 offchain\n        ) \n                public \n                onlyAdmin \n        {\n                param[key] = value;\n                emit __setParam(offchain);\n        }\n\n        \n        /**\n         * @dev Getter function to get a param value\n         */\n        function getParam(bytes32 key) public view returns (uint){\n                return param[key];\n        }\n}\n",
  "sourcePath": "/Users/d/code/constant-mvp/smart-contract/contracts/Governance.sol",
  "compiler": {
    "name": "solc",
    "version": "0.4.24+commit.e67f0147.Emscripten.clang"
  },
  "schemaVersion": "3.0.0",
  "updatedAt": "2018-12-29T01:49:05.156Z",
  "devdoc": {
    "methods": {
      "getParam(bytes32)": {
        "details": "Getter function to get a param value"
      },
      "setParam(bytes32,uint256,bytes32)": {
        "details": "Setter function to update a param value"
      }
    }
  },
  "userdoc": {
    "methods": {}
  }
}