{
  "contractName": "MonetaryPolicy",
  "abi": [
    {
      "constant": true,
      "inputs": [],
      "name": "name",
      "outputs": [
        {
          "name": "",
          "type": "string"
        }
      ],
      "payable": false,
      "stateMutability": "view",
      "type": "function"
    },
    {
      "constant": false,
      "inputs": [
        {
          "name": "spender",
          "type": "address"
        },
        {
          "name": "value",
          "type": "uint256"
        }
      ],
      "name": "approve",
      "outputs": [
        {
          "name": "",
          "type": "bool"
        }
      ],
      "payable": false,
      "stateMutability": "nonpayable",
      "type": "function"
    },
    {
      "constant": true,
      "inputs": [],
      "name": "totalSupply",
      "outputs": [
        {
          "name": "",
          "type": "uint256"
        }
      ],
      "payable": false,
      "stateMutability": "view",
      "type": "function"
    },
    {
      "constant": false,
      "inputs": [
        {
          "name": "from",
          "type": "address"
        },
        {
          "name": "to",
          "type": "address"
        },
        {
          "name": "value",
          "type": "uint256"
        }
      ],
      "name": "transferFrom",
      "outputs": [
        {
          "name": "",
          "type": "bool"
        }
      ],
      "payable": false,
      "stateMutability": "nonpayable",
      "type": "function"
    },
    {
      "constant": true,
      "inputs": [],
      "name": "decimals",
      "outputs": [
        {
          "name": "",
          "type": "uint256"
        }
      ],
      "payable": false,
      "stateMutability": "view",
      "type": "function"
    },
    {
      "constant": false,
      "inputs": [
        {
          "name": "spender",
          "type": "address"
        },
        {
          "name": "addedValue",
          "type": "uint256"
        }
      ],
      "name": "increaseAllowance",
      "outputs": [
        {
          "name": "",
          "type": "bool"
        }
      ],
      "payable": false,
      "stateMutability": "nonpayable",
      "type": "function"
    },
    {
      "constant": true,
      "inputs": [
        {
          "name": "owner",
          "type": "address"
        }
      ],
      "name": "balanceOf",
      "outputs": [
        {
          "name": "",
          "type": "uint256"
        }
      ],
      "payable": false,
      "stateMutability": "view",
      "type": "function"
    },
    {
      "constant": true,
      "inputs": [],
      "name": "symbol",
      "outputs": [
        {
          "name": "",
          "type": "string"
        }
      ],
      "payable": false,
      "stateMutability": "view",
      "type": "function"
    },
    {
      "constant": false,
      "inputs": [
        {
          "name": "spender",
          "type": "address"
        },
        {
          "name": "subtractedValue",
          "type": "uint256"
        }
      ],
      "name": "decreaseAllowance",
      "outputs": [
        {
          "name": "",
          "type": "bool"
        }
      ],
      "payable": false,
      "stateMutability": "nonpayable",
      "type": "function"
    },
    {
      "constant": false,
      "inputs": [
        {
          "name": "to",
          "type": "address"
        },
        {
          "name": "value",
          "type": "uint256"
        }
      ],
      "name": "transfer",
      "outputs": [
        {
          "name": "",
          "type": "bool"
        }
      ],
      "payable": false,
      "stateMutability": "nonpayable",
      "type": "function"
    },
    {
      "constant": true,
      "inputs": [
        {
          "name": "owner",
          "type": "address"
        },
        {
          "name": "spender",
          "type": "address"
        }
      ],
      "name": "allowance",
      "outputs": [
        {
          "name": "",
          "type": "uint256"
        }
      ],
      "payable": false,
      "stateMutability": "view",
      "type": "function"
    },
    {
      "inputs": [],
      "payable": false,
      "stateMutability": "nonpayable",
      "type": "constructor"
    },
    {
      "anonymous": false,
      "inputs": [
        {
          "indexed": false,
          "name": "offchain",
          "type": "bytes32"
        }
      ],
      "name": "__transferByAdmin",
      "type": "event"
    },
    {
      "anonymous": false,
      "inputs": [
        {
          "indexed": false,
          "name": "offchain",
          "type": "bytes32"
        }
      ],
      "name": "__mint",
      "type": "event"
    },
    {
      "anonymous": false,
      "inputs": [
        {
          "indexed": false,
          "name": "pid",
          "type": "uint256"
        },
        {
          "indexed": false,
          "name": "offchain",
          "type": "bytes32"
        }
      ],
      "name": "__propose",
      "type": "event"
    },
    {
      "anonymous": false,
      "inputs": [
        {
          "indexed": false,
          "name": "offchain",
          "type": "bytes32"
        }
      ],
      "name": "__vote",
      "type": "event"
    },
    {
      "anonymous": false,
      "inputs": [
        {
          "indexed": false,
          "name": "offchain",
          "type": "bytes32"
        }
      ],
      "name": "__setParam",
      "type": "event"
    },
    {
      "anonymous": false,
      "inputs": [
        {
          "indexed": true,
          "name": "from",
          "type": "address"
        },
        {
          "indexed": true,
          "name": "to",
          "type": "address"
        },
        {
          "indexed": false,
          "name": "value",
          "type": "uint256"
        }
      ],
      "name": "Transfer",
      "type": "event"
    },
    {
      "anonymous": false,
      "inputs": [
        {
          "indexed": true,
          "name": "owner",
          "type": "address"
        },
        {
          "indexed": true,
          "name": "spender",
          "type": "address"
        },
        {
          "indexed": false,
          "name": "value",
          "type": "uint256"
        }
      ],
      "name": "Approval",
      "type": "event"
    },
    {
      "constant": false,
      "inputs": [
        {
          "name": "from",
          "type": "address"
        },
        {
          "name": "to",
          "type": "address"
        },
        {
          "name": "value",
          "type": "uint256"
        },
        {
          "name": "offchain",
          "type": "bytes32"
        }
      ],
      "name": "transferByAdmin",
      "outputs": [],
      "payable": false,
      "stateMutability": "nonpayable",
      "type": "function"
    },
    {
      "constant": false,
      "inputs": [
        {
          "name": "to",
          "type": "address"
        },
        {
          "name": "value",
          "type": "uint256"
        },
        {
          "name": "offchain",
          "type": "bytes32"
        }
      ],
      "name": "mint",
      "outputs": [],
      "payable": false,
      "stateMutability": "nonpayable",
      "type": "function"
    },
    {
      "constant": true,
      "inputs": [
        {
          "name": "key",
          "type": "bytes32"
        }
      ],
      "name": "param",
      "outputs": [
        {
          "name": "",
          "type": "uint256"
        }
      ],
      "payable": false,
      "stateMutability": "view",
      "type": "function"
    },
    {
      "constant": false,
      "inputs": [
        {
          "name": "key",
          "type": "bytes32"
        },
        {
          "name": "value",
          "type": "uint256"
        },
        {
          "name": "offchain",
          "type": "bytes32"
        }
      ],
      "name": "propose",
      "outputs": [],
      "payable": false,
      "stateMutability": "nonpayable",
      "type": "function"
    },
    {
      "constant": false,
      "inputs": [
        {
          "name": "pid",
          "type": "uint256"
        },
        {
          "name": "yes",
          "type": "bool"
        },
        {
          "name": "offchain",
          "type": "bytes32"
        }
      ],
      "name": "vote",
      "outputs": [],
      "payable": false,
      "stateMutability": "nonpayable",
      "type": "function"
    }
  ],
  "bytecode": "0x608060405234801561001057600080fd5b5033600360006101000a81548173ffffffffffffffffffffffffffffffffffffffff021916908373ffffffffffffffffffffffffffffffffffffffff160217905550610168600560007f696e746572657374000000000000000000000000000000000000000000000000600019168152602001908152602001600020819055506032600560007f657468526174696f0000000000000000000000000000000000000000000000006000191681526020019081526020016000208190555061012c600560007f657468496e746572657374000000000000000000000000000000000000000000600019168152602001908152602001600020819055506050600560007f6574685468726573686f6c6400000000000000000000000000000000000000006000191681526020019081526020016000208190555062093a80600560007f766f74696e6757696e646f770000000000000000000000000000000000000000600019168152602001908152602001600020819055506014600560007f71756f72756d0000000000000000000000000000000000000000000000000000600019168152602001908152602001600020819055506033600560007f6d616a6f726974794d617267696e0000000000000000000000000000000000006000191681526020019081526020016000208190555061184d806102106000396000f3006080604052600436106100e6576000357c0100000000000000000000000000000000000000000000000000000000900463ffffffff16806306fdde03146100eb578063095ea7b31461017b57806318160ddd146101e05780631e458bee1461020b57806323b872dd146102665780632adfef74146102eb578063313ce56714610330578063395093511461035b57806370a08231146103c057806376e42ffb1461041757806395d89b4114610460578063a457c2d7146104f0578063a9059cbb14610555578063dd62ed3e146105ba578063e8eb32ef14610631578063f9ba884f14610678575b600080fd5b3480156100f757600080fd5b506101006106f3565b6040518080602001828103825283818151815260200191508051906020019080838360005b83811015610140578082015181840152602081019050610125565b50505050905090810190601f16801561016d5780820380516001836020036101000a031916815260200191505b509250505060405180910390f35b34801561018757600080fd5b506101c6600480360381019080803573ffffffffffffffffffffffffffffffffffffffff1690602001909291908035906020019092919050505061072c565b604051808215151515815260200191505060405180910390f35b3480156101ec57600080fd5b506101f5610859565b6040518082815260200191505060405180910390f35b34801561021757600080fd5b50610264600480360381019080803573ffffffffffffffffffffffffffffffffffffffff169060200190929190803590602001909291908035600019169060200190929190505050610863565b005b34801561027257600080fd5b506102d1600480360381019080803573ffffffffffffffffffffffffffffffffffffffff169060200190929190803573ffffffffffffffffffffffffffffffffffffffff1690602001909291908035906020019092919050505061091d565b604051808215151515815260200191505060405180910390f35b3480156102f757600080fd5b5061031a6004803603810190808035600019169060200190929190505050610acf565b6040518082815260200191505060405180910390f35b34801561033c57600080fd5b50610345610af4565b6040518082815260200191505060405180910390f35b34801561036757600080fd5b506103a6600480360381019080803573ffffffffffffffffffffffffffffffffffffffff16906020019092919080359060200190929190505050610af9565b604051808215151515815260200191505060405180910390f35b3480156103cc57600080fd5b50610401600480360381019080803573ffffffffffffffffffffffffffffffffffffffff169060200190929190505050610d30565b6040518082815260200191505060405180910390f35b34801561042357600080fd5b5061045e6004803603810190808035600019169060200190929190803590602001909291908035600019169060200190929190505050610d78565b005b34801561046c57600080fd5b50610475610eb4565b6040518080602001828103825283818151815260200191508051906020019080838360005b838110156104b557808201518184015260208101905061049a565b50505050905090810190601f1680156104e25780820380516001836020036101000a031916815260200191505b509250505060405180910390f35b3480156104fc57600080fd5b5061053b600480360381019080803573ffffffffffffffffffffffffffffffffffffffff16906020019092919080359060200190929190505050610eed565b604051808215151515815260200191505060405180910390f35b34801561056157600080fd5b506105a0600480360381019080803573ffffffffffffffffffffffffffffffffffffffff16906020019092919080359060200190929190505050611124565b604051808215151515815260200191505060405180910390f35b3480156105c657600080fd5b5061061b600480360381019080803573ffffffffffffffffffffffffffffffffffffffff169060200190929190803573ffffffffffffffffffffffffffffffffffffffff16906020019092919050505061113b565b6040518082815260200191505060405180910390f35b34801561063d57600080fd5b506106766004803603810190808035906020019092919080351515906020019092919080356000191690602001909291905050506111c2565b005b34801561068457600080fd5b506106f1600480360381019080803573ffffffffffffffffffffffffffffffffffffffff169060200190929190803573ffffffffffffffffffffffffffffffffffffffff1690602001909291908035906020019092919080356000191690602001909291905050506113a2565b005b6040805190810160405280601581526020017f4d6f6e657461727920506f6c69637920546f6b656e000000000000000000000081525081565b60008073ffffffffffffffffffffffffffffffffffffffff168373ffffffffffffffffffffffffffffffffffffffff161415151561076957600080fd5b81600160003373ffffffffffffffffffffffffffffffffffffffff1673ffffffffffffffffffffffffffffffffffffffff16815260200190815260200160002060008573ffffffffffffffffffffffffffffffffffffffff1673ffffffffffffffffffffffffffffffffffffffff168152602001908152602001600020819055508273ffffffffffffffffffffffffffffffffffffffff163373ffffffffffffffffffffffffffffffffffffffff167f8c5be1e5ebec7d5bd14f71427d1e84f3dd0314c0f7b2291e5b200ac8c7c3b925846040518082815260200191505060405180910390a36001905092915050565b6000600254905090565b600360009054906101000a900473ffffffffffffffffffffffffffffffffffffffff1673ffffffffffffffffffffffffffffffffffffffff163373ffffffffffffffffffffffffffffffffffffffff161415156108bf57600080fd5b6108c9838361144e565b816004600082825401925050819055507f62c14444e8c9cc3a521b0bcf22aa9de6f4cb6987e2a62b9d27ebf0f35e49a2088160405180826000191660001916815260200191505060405180910390a1505050565b6000600160008573ffffffffffffffffffffffffffffffffffffffff1673ffffffffffffffffffffffffffffffffffffffff16815260200190815260200160002060003373ffffffffffffffffffffffffffffffffffffffff1673ffffffffffffffffffffffffffffffffffffffff1681526020019081526020016000205482111515156109aa57600080fd5b610a3982600160008773ffffffffffffffffffffffffffffffffffffffff1673ffffffffffffffffffffffffffffffffffffffff16815260200190815260200160002060003373ffffffffffffffffffffffffffffffffffffffff1673ffffffffffffffffffffffffffffffffffffffff1681526020019081526020016000205461158c90919063ffffffff16565b600160008673ffffffffffffffffffffffffffffffffffffffff1673ffffffffffffffffffffffffffffffffffffffff16815260200190815260200160002060003373ffffffffffffffffffffffffffffffffffffffff1673ffffffffffffffffffffffffffffffffffffffff16815260200190815260200160002081905550610ac48484846115ad565b600190509392505050565b6000600560008360001916600019168152602001908152602001600020549050919050565b600081565b60008073ffffffffffffffffffffffffffffffffffffffff168373ffffffffffffffffffffffffffffffffffffffff1614151515610b3657600080fd5b610bc582600160003373ffffffffffffffffffffffffffffffffffffffff1673ffffffffffffffffffffffffffffffffffffffff16815260200190815260200160002060008673ffffffffffffffffffffffffffffffffffffffff1673ffffffffffffffffffffffffffffffffffffffff168152602001908152602001600020546117c690919063ffffffff16565b600160003373ffffffffffffffffffffffffffffffffffffffff1673ffffffffffffffffffffffffffffffffffffffff16815260200190815260200160002060008573ffffffffffffffffffffffffffffffffffffffff1673ffffffffffffffffffffffffffffffffffffffff168152602001908152602001600020819055508273ffffffffffffffffffffffffffffffffffffffff163373ffffffffffffffffffffffffffffffffffffffff167f8c5be1e5ebec7d5bd14f71427d1e84f3dd0314c0f7b2291e5b200ac8c7c3b925600160003373ffffffffffffffffffffffffffffffffffffffff1673ffffffffffffffffffffffffffffffffffffffff16815260200190815260200160002060008773ffffffffffffffffffffffffffffffffffffffff1673ffffffffffffffffffffffffffffffffffffffff168152602001908152602001600020546040518082815260200191505060405180910390a36001905092915050565b60008060008373ffffffffffffffffffffffffffffffffffffffff1673ffffffffffffffffffffffffffffffffffffffff168152602001908152602001600020549050919050565b610d806117e7565b838160000190600019169081600019168152505082816020018181525050600560007f766f74696e6757696e646f77000000000000000000000000000000000000000060001916815260200190815260200160002054420181608001818152505060018160a001818152505060068190806001815401808255809150509060018203906000526020600020906006020160009091929091909150600082015181600001906000191690556020820151816001015560408201518160020155606082015181600301556080820151816004015560a082015181600501555050507f2b30afe50dde3721aea3d6870bd014640d10e69c5402578145d7e61d2fb3e59b600160068054905003836040518083815260200182600019166000191681526020019250505060405180910390a150505050565b6040805190810160405280600381526020017f4d5054000000000000000000000000000000000000000000000000000000000081525081565b60008073ffffffffffffffffffffffffffffffffffffffff168373ffffffffffffffffffffffffffffffffffffffff1614151515610f2a57600080fd5b610fb982600160003373ffffffffffffffffffffffffffffffffffffffff1673ffffffffffffffffffffffffffffffffffffffff16815260200190815260200160002060008673ffffffffffffffffffffffffffffffffffffffff1673ffffffffffffffffffffffffffffffffffffffff1681526020019081526020016000205461158c90919063ffffffff16565b600160003373ffffffffffffffffffffffffffffffffffffffff1673ffffffffffffffffffffffffffffffffffffffff16815260200190815260200160002060008573ffffffffffffffffffffffffffffffffffffffff1673ffffffffffffffffffffffffffffffffffffffff168152602001908152602001600020819055508273ffffffffffffffffffffffffffffffffffffffff163373ffffffffffffffffffffffffffffffffffffffff167f8c5be1e5ebec7d5bd14f71427d1e84f3dd0314c0f7b2291e5b200ac8c7c3b925600160003373ffffffffffffffffffffffffffffffffffffffff1673ffffffffffffffffffffffffffffffffffffffff16815260200190815260200160002060008773ffffffffffffffffffffffffffffffffffffffff1673ffffffffffffffffffffffffffffffffffffffff168152602001908152602001600020546040518082815260200191505060405180910390a36001905092915050565b60006111313384846115ad565b6001905092915050565b6000600160008473ffffffffffffffffffffffffffffffffffffffff1673ffffffffffffffffffffffffffffffffffffffff16815260200190815260200160002060008373ffffffffffffffffffffffffffffffffffffffff1673ffffffffffffffffffffffffffffffffffffffff16815260200190815260200160002054905092915050565b60006006848154811015156111d357fe5b90600052602060002090600602019050600181600501541415156111f657600080fd5b80600401544210151561120857600080fd5b821561122d5761121733610d30565b8160020160008282540192505081905550611248565b61123633610d30565b81600301600082825401925050819055505b600454600560007f71756f72756d000000000000000000000000000000000000000000000000000060001916815260200190815260200160002054026064826003015483600201540102111561135d578060030154816002015401600560007f6d616a6f726974794d617267696e00000000000000000000000000000000000060001916815260200190815260200160002054026064826002015402111561135c5760028160050181905550806001015460056000836000015460001916600019168152602001908152602001600020819055507fd8c93d5a42b0a27bfe94ef709b72f028096aeeba7636dc85e61ae1a4f894608f8260405180826000191660001916815260200191505060405180910390a15b5b7fb0664b5e9030aa35947d8d71ac7a053a427d80ccd46ebde0442b3bf00900bbf68260405180826000191660001916815260200191505060405180910390a150505050565b600360009054906101000a900473ffffffffffffffffffffffffffffffffffffffff1673ffffffffffffffffffffffffffffffffffffffff163373ffffffffffffffffffffffffffffffffffffffff161415156113fe57600080fd5b6114098484846115ad565b7f3b36ee6b35325f38e95938557be92853c842b7a9a19fd7ac4931a6d24db526828160405180826000191660001916815260200191505060405180910390a150505050565b60008273ffffffffffffffffffffffffffffffffffffffff161415151561147457600080fd5b611489816002546117c690919063ffffffff16565b6002819055506114e0816000808573ffffffffffffffffffffffffffffffffffffffff1673ffffffffffffffffffffffffffffffffffffffff168152602001908152602001600020546117c690919063ffffffff16565b6000808473ffffffffffffffffffffffffffffffffffffffff1673ffffffffffffffffffffffffffffffffffffffff168152602001908152602001600020819055508173ffffffffffffffffffffffffffffffffffffffff16600073ffffffffffffffffffffffffffffffffffffffff167fddf252ad1be2c89b69c2b068fc378daa952ba7f163c4a11628f55a4df523b3ef836040518082815260200191505060405180910390a35050565b60008083831115151561159e57600080fd5b82840390508091505092915050565b6000808473ffffffffffffffffffffffffffffffffffffffff1673ffffffffffffffffffffffffffffffffffffffff1681526020019081526020016000205481111515156115fa57600080fd5b600073ffffffffffffffffffffffffffffffffffffffff168273ffffffffffffffffffffffffffffffffffffffff161415151561163657600080fd5b611687816000808673ffffffffffffffffffffffffffffffffffffffff1673ffffffffffffffffffffffffffffffffffffffff1681526020019081526020016000205461158c90919063ffffffff16565b6000808573ffffffffffffffffffffffffffffffffffffffff1673ffffffffffffffffffffffffffffffffffffffff1681526020019081526020016000208190555061171a816000808573ffffffffffffffffffffffffffffffffffffffff1673ffffffffffffffffffffffffffffffffffffffff168152602001908152602001600020546117c690919063ffffffff16565b6000808473ffffffffffffffffffffffffffffffffffffffff1673ffffffffffffffffffffffffffffffffffffffff168152602001908152602001600020819055508173ffffffffffffffffffffffffffffffffffffffff168373ffffffffffffffffffffffffffffffffffffffff167fddf252ad1be2c89b69c2b068fc378daa952ba7f163c4a11628f55a4df523b3ef836040518082815260200191505060405180910390a3505050565b60008082840190508381101515156117dd57600080fd5b8091505092915050565b60c06040519081016040528060008019168152602001600081526020016000815260200160008152602001600081526020016000815250905600a165627a7a72305820008643452d3e161b1cbf075b0552a10dc9359a8f5e461965c177272bd2523d420029",
  "source": "pragma solidity ^0.4.24;\n\nimport 'openzeppelin-solidity/contracts/token/ERC20/ERC20.sol';\nimport './Admin.sol';\n\ncontract MonetaryPolicy is ERC20, Admin { \n\n        // token info\n        string public constant name = \"Monetary Policy Token\"; \n        string public constant symbol = \"MPT\"; \n        uint public constant decimals = 0;\n        uint private supply;\n\n        struct Proposal {\n                bytes32 key;\n                uint value;\n                uint yes;\n                uint no;\n                uint deadline;\n\n                // 0: empty, 1: proposed, 2: approved\n                uint status;\n        }\n\n        // monetary policy parameters such as ratio, threshold, interest\n        mapping(bytes32 => uint) private params;        \n\n        // proposal\n        Proposal[] private proposals;\n\n        // events for syncing onchain and offchain execution\n        event __transferByAdmin(bytes32 offchain);\n        event __mint(bytes32 offchain);\n        event __propose(uint pid, bytes32 offchain);\n        event __vote(bytes32 offchain);\n        event __setParam(bytes32 offchain);\n\n\n        /**\n         * @dev constructor that populates a bunch of default params\n         */\n        constructor() public {\n\n                // saving interest\n                params[\"interest\"] = 360; // 3.60%\n\n                // secured loan\n                params[\"ethRatio\"] = 50; // 50%\n                params[\"ethInterest\"] = 300; // 3.00%\n                params[\"ethThreshold\"] = 80; // 3.00%\n\n                // voting\n                params[\"votingWindow\"] = 7 * 1 days;\n                params[\"quorum\"] = 20; // 20%\n                params[\"majorityMargin\"] = 51; // 51%\n        }\n\n        /**\n         * @dev function to transfer MPT\n         * @param from the address to transfer from\n         * @param to the address to transfer to \n         * @param value the amount to be transferred \n         */\n        function transferByAdmin(\n                address from, \n                address to, \n                uint value, \n                bytes32 offchain\n        ) \n                public \n                onlyAdmin \n        {\n                _transfer(from, to, value);\n                emit __transferByAdmin(offchain); \n        }\n        \n\n        /**\n         * @dev function to mint new MPT\n         * @param to the address that will receive the newly minted MPT\n         * @param value the amount of MPT to mint\n         */\n        function mint(\n                address to, \n                uint value, \n                bytes32 offchain\n        ) \n                public \n                onlyAdmin \n        {\n                _mint(to, value);\n                supply += value;\n                emit __mint(offchain); \n        }\n\n\n        /**\n         * @dev getter function to get a param value\n         */\n        function param(bytes32 key) public view returns (uint){\n                return params[key];\n        }\n\n\n        /**\n         * @dev function to submit a new proposal\n         */\n        function propose(bytes32 key, uint value, bytes32 offchain) public {\n                Proposal memory p;\n                p.key = key;\n                p.value = value;\n                p.deadline = now + params[\"votingWindow\"];\n                p.status = 1;\n\n                proposals.push(p);\n\n                emit __propose(proposals.length - 1, offchain);\n        }\n\n\n        /**\n         * @dev function to vote on a proposal\n         */\n        function vote(uint pid, bool yes, bytes32 offchain) public {\n                Proposal storage p = proposals[pid];\n                require(p.status == 1);\n                require(now < p.deadline);\n\n                if (yes) \n                        p.yes += balanceOf(msg.sender);\n                else \n                        p.no += balanceOf(msg.sender);\n\n                if ((p.yes + p.no) * 100 > params[\"quorum\"] * supply) {\n                        if (p.yes * 100 > params[\"majorityMargin\"] * (p.yes + p.no)) {\n                                p.status = 2;\n                                params[p.key] = p.value;\n\n                                emit __setParam(offchain);\n                        }\n                }\n\n                emit __vote(offchain);\n        }\n}\n",
  "sourcePath": "/Users/d/code/constant-mvp/smart-contract/contracts/MonetaryPolicy.sol",
  "compiler": {
    "name": "solc",
    "version": "0.4.24+commit.e67f0147.Emscripten.clang"
  },
  "schemaVersion": "3.0.0",
  "updatedAt": "2018-12-29T22:19:26.267Z",
  "devdoc": {
    "methods": {
      "allowance(address,address)": {
        "details": "Function to check the amount of tokens that an owner allowed to a spender.",
        "params": {
          "owner": "address The address which owns the funds.",
          "spender": "address The address which will spend the funds."
        },
        "return": "A uint256 specifying the amount of tokens still available for the spender."
      },
      "approve(address,uint256)": {
        "details": "Approve the passed address to spend the specified amount of tokens on behalf of msg.sender. Beware that changing an allowance with this method brings the risk that someone may use both the old and the new allowance by unfortunate transaction ordering. One possible solution to mitigate this race condition is to first reduce the spender's allowance to 0 and set the desired value afterwards: https://github.com/ethereum/EIPs/issues/20#issuecomment-263524729",
        "params": {
          "spender": "The address which will spend the funds.",
          "value": "The amount of tokens to be spent."
        }
      },
      "balanceOf(address)": {
        "details": "Gets the balance of the specified address.",
        "params": {
          "owner": "The address to query the balance of."
        },
        "return": "An uint256 representing the amount owned by the passed address."
      },
      "decreaseAllowance(address,uint256)": {
        "details": "Decrease the amount of tokens that an owner allowed to a spender. approve should be called when allowed_[_spender] == 0. To decrement allowed value is better to use this function to avoid 2 calls (and wait until the first transaction is mined) From MonolithDAO Token.sol",
        "params": {
          "spender": "The address which will spend the funds.",
          "subtractedValue": "The amount of tokens to decrease the allowance by."
        }
      },
      "increaseAllowance(address,uint256)": {
        "details": "Increase the amount of tokens that an owner allowed to a spender. approve should be called when allowed_[_spender] == 0. To increment allowed value is better to use this function to avoid 2 calls (and wait until the first transaction is mined) From MonolithDAO Token.sol",
        "params": {
          "addedValue": "The amount of tokens to increase the allowance by.",
          "spender": "The address which will spend the funds."
        }
      },
      "mint(address,uint256,bytes32)": {
        "details": "function to mint new MPT",
        "params": {
          "to": "the address that will receive the newly minted MPT",
          "value": "the amount of MPT to mint"
        }
      },
      "param(bytes32)": {
        "details": "getter function to get a param value"
      },
      "propose(bytes32,uint256,bytes32)": {
        "details": "function to submit a new proposal"
      },
      "totalSupply()": {
        "details": "Total number of tokens in existence"
      },
      "transfer(address,uint256)": {
        "details": "Transfer token for a specified address",
        "params": {
          "to": "The address to transfer to.",
          "value": "The amount to be transferred."
        }
      },
      "transferByAdmin(address,address,uint256,bytes32)": {
        "details": "function to transfer MPT",
        "params": {
          "from": "the address to transfer from",
          "to": "the address to transfer to ",
          "value": "the amount to be transferred "
        }
      },
      "transferFrom(address,address,uint256)": {
        "details": "Transfer tokens from one address to another",
        "params": {
          "from": "address The address which you want to send tokens from",
          "to": "address The address which you want to transfer to",
          "value": "uint256 the amount of tokens to be transferred"
        }
      },
      "vote(uint256,bool,bytes32)": {
        "details": "function to vote on a proposal"
      }
    }
  },
  "userdoc": {
    "methods": {}
  }
}