{
  "contractName": "Oracle",
  "abi": [
    {
      "inputs": [],
      "payable": false,
      "stateMutability": "nonpayable",
      "type": "constructor"
    },
    {
      "anonymous": false,
      "inputs": [
        {
          "indexed": false,
          "name": "offchain",
          "type": "bytes32"
        }
      ],
      "name": "__addOracle",
      "type": "event"
    },
    {
      "anonymous": false,
      "inputs": [
        {
          "indexed": false,
          "name": "offchain",
          "type": "bytes32"
        }
      ],
      "name": "__removeOracle",
      "type": "event"
    },
    {
      "anonymous": false,
      "inputs": [
        {
          "indexed": false,
          "name": "offchain",
          "type": "bytes32"
        }
      ],
      "name": "__setSize",
      "type": "event"
    },
    {
      "anonymous": false,
      "inputs": [
        {
          "indexed": false,
          "name": "offchain",
          "type": "bytes32"
        }
      ],
      "name": "__setFrequency",
      "type": "event"
    },
    {
      "anonymous": false,
      "inputs": [
        {
          "indexed": false,
          "name": "offchain",
          "type": "bytes32"
        }
      ],
      "name": "__feed",
      "type": "event"
    },
    {
      "constant": false,
      "inputs": [
        {
          "name": "a",
          "type": "address"
        },
        {
          "name": "offchain",
          "type": "bytes32"
        }
      ],
      "name": "addOracle",
      "outputs": [],
      "payable": false,
      "stateMutability": "nonpayable",
      "type": "function"
    },
    {
      "constant": false,
      "inputs": [
        {
          "name": "a",
          "type": "address"
        },
        {
          "name": "offchain",
          "type": "bytes32"
        }
      ],
      "name": "removeOracle",
      "outputs": [],
      "payable": false,
      "stateMutability": "nonpayable",
      "type": "function"
    },
    {
      "constant": false,
      "inputs": [
        {
          "name": "_size",
          "type": "uint256"
        },
        {
          "name": "offchain",
          "type": "bytes32"
        }
      ],
      "name": "setSize",
      "outputs": [],
      "payable": false,
      "stateMutability": "nonpayable",
      "type": "function"
    },
    {
      "constant": false,
      "inputs": [
        {
          "name": "_frequency",
          "type": "uint256"
        },
        {
          "name": "offchain",
          "type": "bytes32"
        }
      ],
      "name": "setFrequency",
      "outputs": [],
      "payable": false,
      "stateMutability": "nonpayable",
      "type": "function"
    },
    {
      "constant": false,
      "inputs": [
        {
          "name": "key",
          "type": "bytes32"
        },
        {
          "name": "value",
          "type": "uint256"
        },
        {
          "name": "offchain",
          "type": "bytes32"
        }
      ],
      "name": "feed",
      "outputs": [],
      "payable": false,
      "stateMutability": "nonpayable",
      "type": "function"
    },
    {
      "constant": true,
      "inputs": [
        {
          "name": "key",
          "type": "bytes32"
        }
      ],
      "name": "value",
      "outputs": [
        {
          "name": "",
          "type": "uint256"
        }
      ],
      "payable": false,
      "stateMutability": "view",
      "type": "function"
    }
  ],
  "bytecode": "0x608060405234801561001057600080fd5b50336000806101000a81548173ffffffffffffffffffffffffffffffffffffffff021916908373ffffffffffffffffffffffffffffffffffffffff160217905550600a6001819055506001600281905550610a2e806100706000396000f300608060405260043610610078576000357c0100000000000000000000000000000000000000000000000000000000900463ffffffff1680634e6ddd521461007d5780634e7faa1c146100c65780637211da8c146101175780637bfb0934146101525780637e790d3114610197578063c405970c146101e8575b600080fd5b34801561008957600080fd5b506100c46004803603810190808035600019169060200190929190803590602001909291908035600019169060200190929190505050610223565b005b3480156100d257600080fd5b50610115600480360381019080803573ffffffffffffffffffffffffffffffffffffffff1690602001909291908035600019169060200190929190505050610666565b005b34801561012357600080fd5b5061015060048036038101908080359060200190929190803560001916906020019092919050505061075c565b005b34801561015e57600080fd5b506101816004803603810190808035600019169060200190929190505050610801565b6040518082815260200191505060405180910390f35b3480156101a357600080fd5b506101e6600480360381019080803573ffffffffffffffffffffffffffffffffffffffff1690602001909291908035600019169060200190929190505050610867565b005b3480156101f457600080fd5b5061022160048036038101908080359060200190929190803560001916906020019092919050505061095d565b005b600080600080600560003373ffffffffffffffffffffffffffffffffffffffff1673ffffffffffffffffffffffffffffffffffffffff16815260200190815260200160002060009054906101000a900460ff16151561028157600080fd5b60025460046000896000191660001916815260200190815260200160002060003373ffffffffffffffffffffffffffffffffffffffff1673ffffffffffffffffffffffffffffffffffffffff1681526020019081526020016000205401421115156102eb57600080fd5b4260046000896000191660001916815260200190815260200160002060003373ffffffffffffffffffffffffffffffffffffffff1673ffffffffffffffffffffffffffffffffffffffff1681526020019081526020016000208190555060009350600092505b600360008860001916600019168152602001908152602001600020805490508310156104a4576003600088600019166000191681526020019081526020016000208381548110151561039f57fe5b9060005260206000200154861015610497576001830191505b60036000886000191660001916815260200190815260200160002080549050821015610457576003600088600019166000191681526020019081526020016000206001830381548110151561040957fe5b90600052602060002001546003600089600019166000191681526020019081526020016000208381548110151561043c57fe5b906000526020600020018190555081806001019250506103b8565b856003600089600019166000191681526020019081526020016000208481548110151561048057fe5b9060005260206000200181905550600193506104a4565b8280600101935050610351565b83151561061e576001546003600089600019166000191681526020019081526020016000208054905014156105d757600090505b6001600360008960001916600019168152602001908152602001600020805490500381101561057a576003600088600019166000191681526020019081526020016000206001820181548110151561052c57fe5b90600052602060002001546003600089600019166000191681526020019081526020016000208281548110151561055f57fe5b906000526020600020018190555080806001019150506104d8565b856003600089600019166000191681526020019081526020016000206001600360008b6000191660001916815260200190815260200160002080549050038154811015156105c457fe5b906000526020600020018190555061061d565b6003600088600019166000191681526020019081526020016000208690806001815401808255809150509060018203906000526020600020016000909192909190915055505b5b7fcce19010e7fe6fe7a6355366e3936960956995d1c3d69f632b619a3f4b3497b88560405180826000191660001916815260200191505060405180910390a150505050505050565b6000809054906101000a900473ffffffffffffffffffffffffffffffffffffffff1673ffffffffffffffffffffffffffffffffffffffff163373ffffffffffffffffffffffffffffffffffffffff161415156106c157600080fd5b6000600560008473ffffffffffffffffffffffffffffffffffffffff1673ffffffffffffffffffffffffffffffffffffffff16815260200190815260200160002060006101000a81548160ff0219169083151502179055507f8773016f5be636c250164d20fff5b37406b42bf8c3204b1ebbc4e724299f606d8160405180826000191660001916815260200191505060405180910390a15050565b6000809054906101000a900473ffffffffffffffffffffffffffffffffffffffff1673ffffffffffffffffffffffffffffffffffffffff163373ffffffffffffffffffffffffffffffffffffffff161415156107b757600080fd5b816001819055507f633160054aeacb521ac20a0a1c4fbbf591d1965e4e9e75dc89903a0a95f350328160405180826000191660001916815260200191505060405180910390a15050565b600060036000836000191660001916815260200190815260200160002060026003600085600019166000191681526020019081526020016000208054905081151561084857fe5b0481548110151561085557fe5b90600052602060002001549050919050565b6000809054906101000a900473ffffffffffffffffffffffffffffffffffffffff1673ffffffffffffffffffffffffffffffffffffffff163373ffffffffffffffffffffffffffffffffffffffff161415156108c257600080fd5b6001600560008473ffffffffffffffffffffffffffffffffffffffff1673ffffffffffffffffffffffffffffffffffffffff16815260200190815260200160002060006101000a81548160ff0219169083151502179055507f726ae9eb1a6e6bed1205e19dca134d14fa981fa99aa5d6b5f27297e3fb50746a8160405180826000191660001916815260200191505060405180910390a15050565b6000809054906101000a900473ffffffffffffffffffffffffffffffffffffffff1673ffffffffffffffffffffffffffffffffffffffff163373ffffffffffffffffffffffffffffffffffffffff161415156109b857600080fd5b816002819055507fcc85c8c9d83a9863da35aa1fc27cbfa9cf0e5a2e6b707fddd0e77c04f9892a6d8160405180826000191660001916815260200191505060405180910390a150505600a165627a7a72305820096d9eda539e36d870b7117dd1a27dcbfa7d3e7784f89853acde63f334c24fe70029",
  "source": "pragma solidity ^0.4.24;\n\nimport './Admin.sol';\n\ncontract Oracle is Admin { \n\n        // data feed size \n        uint private size;\n\n        // how often an oracle is allowed to submit a new data\n        uint private frequency;\n\n        // data feed\n        mapping(bytes32 => uint[]) private values; \n        mapping(bytes32 => mapping(address => uint)) private timestamps;\n\n        // oracles\n        mapping(address => bool) private oracles;\n\n        // events syncing onchain and offchain\n        event __addOracle(bytes32 offchain);\n        event __removeOracle(bytes32 offchain);\n        event __setSize(bytes32 offchain);\n        event __setFrequency(bytes32 offchain);\n        event __feed(bytes32 offchain);\n\n        modifier onlyOracle() {\n                require(oracles[msg.sender]);\n                _;\n        }\n\n\n        /**\n         * @dev constructor that populates a bunch of default params\n         */\n        constructor() public {\n                size = 10;\n                frequency = 1 seconds;\n        }\n\n        /**\n         * @dev function to add an oracles \n         */\n        function addOracle(address a, bytes32 offchain) public onlyAdmin {\n                oracles[a] = true;\n                emit __addOracle(offchain);\n        }\n\n\n        /**\n         * @dev function to remove an oracles \n         */\n        function removeOracle(address a, bytes32 offchain) public onlyAdmin {\n                oracles[a] = false;\n                emit __removeOracle(offchain);\n        }\n\n\n        /**\n         * @dev function to set data feed size\n         */\n        function setSize(uint _size, bytes32 offchain) public onlyAdmin {\n                size = _size;\n                emit __setSize(offchain);\n        }\n\n\n        /**\n         * @dev function to set oracle update frequency\n         */\n        function setFrequency(uint _frequency, bytes32 offchain) public onlyAdmin {\n                frequency = _frequency;\n                emit __setFrequency(offchain);\n        }\n\n        /**\n         * @dev function to feed a new piece of data\n         */\n        function feed(bytes32 key, uint value, bytes32 offchain) public onlyOracle {\n\n                // avoid flood attack\n                require(now > timestamps[key][msg.sender] + frequency);\n                timestamps[key][msg.sender] = now;\n\n                // insert data to the values\n                bool inserted = false;\n\n                for (uint i = 0; i < values[key].length; i++) {\n                        if (value < values[key][i]) {\n                                for (uint j = i+1; j < values[key].length; j++) {\n                                        values[key][j] = values[key][j-1];\n                                }\n                                values[key][i] = value;\n                                inserted = true;\n                                break;\n                        }\n                }\n\n                if (!inserted) { \n                        if (values[key].length == size) {\n                                for (uint k = 0; k < values[key].length-1; k++) {\n                                        values[key][k] = values[key][k+1];\n                                }\n                                values[key][values[key].length-1] = value;\n                        } else \n                                values[key].push(value);\n                }\n\n                emit __feed(offchain);\n        }\n\n        \n        /**\n         * @dev getter function to get a data value\n         */\n        function value(bytes32 key) public view returns (uint){\n                return values[key][values[key].length/2];\n        }\n}\n",
  "sourcePath": "/Users/d/code/constant-mvp/smart-contract/contracts/Oracle.sol",
  "compiler": {
    "name": "solc",
    "version": "0.4.24+commit.e67f0147.Emscripten.clang"
  },
  "schemaVersion": "3.0.0",
  "updatedAt": "2018-12-29T22:19:26.264Z",
  "devdoc": {
    "methods": {
      "addOracle(address,bytes32)": {
        "details": "function to add an oracles "
      },
      "feed(bytes32,uint256,bytes32)": {
        "details": "function to feed a new piece of data"
      },
      "removeOracle(address,bytes32)": {
        "details": "function to remove an oracles "
      },
      "setFrequency(uint256,bytes32)": {
        "details": "function to set oracle update frequency"
      },
      "setSize(uint256,bytes32)": {
        "details": "function to set data feed size"
      },
      "value(bytes32)": {
        "details": "getter function to get a data value"
      }
    }
  },
  "userdoc": {
    "methods": {}
  }
}